{
  "transactions": [
    {
      "hash": "0x04b73ac6a01cc52804c0cea8df4503fc5112bf1837c33fad1d63ab7722f22553",
      "transactionType": "CALL",
      "contractName": null,
      "contractAddress": "0x6d68cd8fd89bf1746a1948783c92a00e591d1227",
      "function": "setAgentFee(uint256,uint256)",
      "arguments": [
        "4",
        "500000000000000000"
      ],
      "transaction": {
        "from": "0x3ec2c9fb15c222aa273f3f2f20a740fa86b4f618",
        "to": "0x6d68cd8fd89bf1746a1948783c92a00e591d1227",
        "gas": "0x130ff",
        "value": "0x0",
        "input": "0xe9446cf4000000000000000000000000000000000000000000000000000000000000000400000000000000000000000000000000000000000000000006f05b59d3b20000",
        "nonce": "0x6c",
        "chainId": "0x19f8f6fef2"
      },
      "additionalContracts": [],
      "isFixedGasLimit": false
    },
    {
      "hash": "0x189a4166d253723ee79775e2f13f19a22f1d95eb59be476144b669096bb0f169",
      "transactionType": "CALL",
      "contractName": null,
      "contractAddress": "0x6d68cd8fd89bf1746a1948783c92a00e591d1227",
      "function": "setAgentFee(uint256,uint256)",
      "arguments": [
        "7",
        "1000000000000000000"
      ],
      "transaction": {
        "from": "0x3ec2c9fb15c222aa273f3f2f20a740fa86b4f618",
        "to": "0x6d68cd8fd89bf1746a1948783c92a00e591d1227",
        "gas": "0x130ff",
        "value": "0x0",
        "input": "0xe9446cf400000000000000000000000000000000000000000000000000000000000000070000000000000000000000000000000000000000000000000de0b6b3a7640000",
        "nonce": "0x6d",
        "chainId": "0x19f8f6fef2"
      },
      "additionalContracts": [],
      "isFixedGasLimit": false
    }
  ],
  "receipts": [
    {
      "status": "0x1",
      "cumulativeGasUsed": "0x1a94e",
      "logs": [
        {
          "address": "0x6d68cd8fd89bf1746a1948783c92a00e591d1227",
          "topics": [
            "0x9d7a482d8db3c6d3dfed5bff391a08fcd2c86557c6207bf06a3938ea1dd30f0b",
            "0x0000000000000000000000000000000000000000000000000000000000000004"
          ],
          "data": "0x00000000000000000000000000000000000000000000000006f05b59d3b20000",
          "blockHash": "0xe64893419f9466ad1f7e80d81d6b8a5339b0b8cedcb0f71a465c65944cd3f03a",
          "blockNumber": "0x60f920",
          "transactionHash": "0x04b73ac6a01cc52804c0cea8df4503fc5112bf1837c33fad1d63ab7722f22553",
          "transactionIndex": "0x1",
          "logIndex": "0x0",
          "removed": false
        }
      ],
      "logsBloom": "0x04000000000000000000000000000000000000000000000000000000000000000000000000000000000000000000000000000000000000000000000000000000000000000020000000000000000000000000800000000000000000000000000008000000000000000000080000000000000000000000000000000000000000000000000000000000000000000000000000000000000000000000000000000000000000000000000000000000000000000000000000000000002000000000000000000000000000000000000400000000000000008020000000000000000000000000000000000000000000000000000000000000000000000000000000000000",
      "type": "0x0",
      "transactionHash": "0x04b73ac6a01cc52804c0cea8df4503fc5112bf1837c33fad1d63ab7722f22553",
      "transactionIndex": "0x1",
      "blockHash": "0xe64893419f9466ad1f7e80d81d6b8a5339b0b8cedcb0f71a465c65944cd3f03a",
      "blockNumber": "0x60f920",
      "gasUsed": "0xdcd0",
      "effectiveGasPrice": "0xf433c",
      "from": "0x3ec2c9fb15c222aa273f3f2f20a740fa86b4f618",
      "to": "0x6d68cd8fd89bf1746a1948783c92a00e591d1227",
      "contractAddress": null,
      "l1BaseFeeScalar": "0x558",
      "l1BlobBaseFee": "0x4131067dbc1f9310c9c2fa89c",
      "l1BlobBaseFeeScalar": "0x0",
      "l1Fee": "0x1f07f59bd",
      "l1GasPrice": "0xe2d5e0f4",
      "l1GasUsed": "0x640"
    },
    {
      "status": "0x1",
      "cumulativeGasUsed": "0x2861e",
      "logs": [
        {
          "address": "0x6d68cd8fd89bf1746a1948783c92a00e591d1227",
          "topics": [
            "0x9d7a482d8db3c6d3dfed5bff391a08fcd2c86557c6207bf06a3938ea1dd30f0b",
            "0x0000000000000000000000000000000000000000000000000000000000000007"
          ],
          "data": "0x0000000000000000000000000000000000000000000000000de0b6b3a7640000",
          "blockHash": "0xe64893419f9466ad1f7e80d81d6b8a5339b0b8cedcb0f71a465c65944cd3f03a",
          "blockNumber": "0x60f920",
          "transactionHash": "0x189a4166d253723ee79775e2f13f19a22f1d95eb59be476144b669096bb0f169",
          "transactionIndex": "0x2",
          "logIndex": "0x1",
          "removed": false
        }
      ],
      "logsBloom": "0x04000000000000000000000000000000000000000000000000000000000000000000000000000000000000000000000000001000000000000000000000000000000020000020000000000000000000000000800000000000000000000000000000000000000000000000080000000000000000000000000000000000000000000000000000000000000000000000000000000000000000000000000000000000000000000000000000000000000000000000000000000000000000000000000000000000000000000000000400000000000000000020000000000100000000000000000000000000000000000000000000000000000000000000000000000000",
      "type": "0x0",
      "transactionHash": "0x189a4166d253723ee79775e2f13f19a22f1d95eb59be476144b669096bb0f169",
      "transactionIndex": "0x2",
      "blockHash": "0xe64893419f9466ad1f7e80d81d6b8a5339b0b8cedcb0f71a465c65944cd3f03a",
      "blockNumber": "0x60f920",
      "gasUsed": "0xdcd0",
      "effectiveGasPrice": "0xf433c",
      "from": "0x3ec2c9fb15c222aa273f3f2f20a740fa86b4f618",
      "to": "0x6d68cd8fd89bf1746a1948783c92a00e591d1227",
      "contractAddress": null,
      "l1BaseFeeScalar": "0x558",
      "l1BlobBaseFee": "0x4131067dbc1f9310c9c2fa89c",
      "l1BlobBaseFeeScalar": "0x0",
      "l1Fee": "0x1f07f59bd",
      "l1GasPrice": "0xe2d5e0f4",
      "l1GasUsed": "0x640"
    }
  ],
  "libraries": [],
  "pending": [],
  "returns": {},
  "timestamp": 1770974881,
  "chain": 111551119090,
  "commit": "516b0da"
}